:100000000C9462000C94DF030C94B8030C948A00E7
:100010000C948A000C948A000C948A000C948A0038
:100020000C948A000C948A000C948A000C948A0028
:100030000C948A000C948A000C948A000C948A0018
:100040000C946E030C948A000C948A000C948A0021
:100050000C948A000C948A000C948A000C948A00F8
:100060000C948A000C948A000000000024002700F1
:100070002A0000000000250028002B0000000000DE
:1000800023002600290004040404040404040202DA
:100090000202020203030303030301020408102007
:1000A0004080010204081020010204081020000012
:1000B0000008000201000003040700000000000027
:1000C0000000280811241FBECFEFD8E0DEBFCDBF4F
:1000D00012E0A0E0B1E0EEE3F3E202C005900D9281
:1000E000AE3EB107D9F723E0AEEEB2E001C01D92FB
:1000F000AD3FB207E1F710E0C2E6D0E004C02197BF
:10010000FE010E94750DC136D107C9F70E94AE09E4
:100110000C949D110C9400003FB7F8948091F30269
:100120009091F402A091F502B091F60226B5A89B39
:1001300005C02F3F19F00196A11DB11D3FBFBA2F79
:10014000A92F982F8827820F911DA11DB11DBC01D9
:10015000CD0142E0660F771F881F991F4A95D1F79E
:1001600008950895089580E090E008950895089511
:100170000895DC0112962D913C911397FB01318378
:10018000208312968D919C911397DC01ED91FC9147
:100190000284F385E02D0994FC01848D958D0895EA
:1001A000FC01828D938D0895FC0126893789358B5A
:1001B000248B0895FC01738B628B0895FC01758F6D
:1001C000648F0895FC01738F628F08950F931F93BE
:1001D000CF93DF938C01EB01DC0158968D919C91BC
:1001E0005997DC01ED91FC910088F189E02D09958A
:1001F000F80186899789DC01ED91FC910288F389E9
:10020000E02DBE010995F80166897789E881F981B9
:100210000088F189E02DCE010995D80158966D919D
:100220007C915997E881F9810288F389E02DCE010C
:100230000995E881F9810488F589E02DB801CE019E
:100240000995F801D18FC08FDF91CF911F910F9148
:100250000895DC0154968D919C915597DC01ED91A8
:10026000FC910484F585E02D0994CF93DF93FC0184
:10027000848995899F012E5F3F4F8217930741F430
:1002800082899389DB018D939C93828993890FC026
:10029000DB01EF018D939C9384899589DC01ED91BD
:1002A000FC910688F789E02D09958C899D89DC01F0
:1002B000ED91FC910284F385E02DDF91CF910994BB
:1002C000CF93DF93EC018C899D89DC01ED91FC914A
:1002D000028CF38DE02D09959D8B8C8BDC01ED91CB
:1002E000FC910484F585E02DDF91CF910994CF93A3
:1002F000DF93EC018C899D89DC01ED91FC91008CF0
:10030000F18DE02D09959D8B8C8BDC01ED91FC919D
:100310000484F585E02DDF91CF910994DC011E96D0
:10032000ED91FC911F972081318152964D915C9106
:1003300053972417350751F0215031093183208319
:10034000ED91FC910284F385E02D09940895DC0180
:100350001E96ED91FC911F972081318150964D9111
:100360005C9151972417350751F02F5F3F4F318330
:100370002083ED91FC910284F385E02D099408958A
:10038000FC01808591850895FC01868197810895FF
:10039000FC01758364830895FC017187608708956B
:1003A000FC01778366830895DC0114962D913C91BE
:1003B00015972115310571F0FB01318320831496C7
:1003C0008D919C911597DC01ED91FC910284F38550
:1003D000E02D099408950F931F93CF93DF93EC01C1
:1003E0008B01EE85FF850995B801CE01DF91CF9194
:1003F0001F910F910C94D4010895089508950895C4
:1004000008958091C9039091CA03892B61F080916E
:10041000C6039091C70301969093C7038093C603C8
:1004200081E08093C80308950895CF93DF93EC0192
:1004300060E08E810E94860561E08E810E948605C3
:1004400060E08E810E9486058BE891E00197F1F7CC
:10045000DF91CF910895CF93DF93EC0169E872E0CB
:100460008E819F810E94AC0E68E972E08885998533
:10047000DF91CF910C94AC0ECF93DF93EC0166E942
:1004800072E08A859B850E94AC0E6A817B818A8599
:100490009B850E94A10E6AEA72E08C859D85DF91A2
:1004A000CF910C94AC0ECF93DF93EC016A817B81EA
:1004B0008A859B850E94AC0E66E972E08C859D85DD
:1004C0000E94AC0E688979898C859D85DF91CF91DA
:1004D0000C94A10ECF93DF93EC0166E972E08A855C
:1004E0009B850E94AC0E6A817B818A859B850E94D8
:1004F000A10E6AEA72E08C859D85DF91CF910C9404
:10050000AC0ECF93DF93EC016AEA72E08A859B859B
:100510000E94AC0E6A817B818A859B850E94A10E18
:1005200066E972E08C859D85DF91CF910C94AC0ECD
:10053000CF93DF93EC0166E972E08A859B850E9488
:10054000AC0E6A817B818A859B850E94A10EEE8517
:10055000FF8581818F9380818F938BEA92E09F93B7
:100560008F938D858F938C858F930E94B30E0F9000
:100570000F900F900F900F900F906C897D898C8554
:100580009D85DF91CF910C94A10EEF92FF920F9376
:100590001F93CF93DF93CDB7DEB764970FB6F89470
:1005A000DEBF0FBECDBF8C01DC0112966D917C9138
:1005B00013971A968D919C911B970E94AC0E66E939
:1005C00072E0F801848595850E94AC0ED8011E96D4
:1005D000ED91FC911F9781818F9380818F938BEA9E
:1005E00092E09F938F93FE0131967F01FF93EF93EB
:1005F0000E94B30EB701D8011C968D919C911D9756
:100600000E94A10EF80164897589848595850E94F0
:10061000A10E0F900F900F900F900F900F90649677
:100620000FB6F894DEBF0FBECDBFDF91CF911F9103
:100630000F91FF90EF9008950C94520D0C94130EAF
:100640000C94130E0C94130E0C94130E0C94130EA6
:100650008F929F92AF92BF92CF92DF92EF92FF92D2
:100660006B017C010E948C004B015C01C114D10420
:10067000E104F104F1F00E948C00DC01CB01881947
:100680009909AA09BB09883E9340A105B10570F3F9
:1006900021E0C21AD108E108F10888EE880E83E053
:1006A000981EA11CB11CC114D104E104F10419F776
:1006B000DDCFFF90EF90DF90CF90BF90AF909F90F5
:1006C0008F9008952FB7F8946091EF027091F00227
:1006D0008091F1029091F2022FBF08951F920F9224
:1006E0000FB60F9211242F933F938F939F93AF9345
:1006F000BF938091EF029091F002A091F102B0912E
:10070000F2023091EE0223E0230F2D3720F4019600
:10071000A11DB11D05C026E8230F0296A11DB11D24
:100720002093EE028093EF029093F002A093F102E7
:10073000B093F2028091F3029091F402A091F5023D
:10074000B091F6020196A11DB11D8093F302909322
:10075000F402A093F502B093F602BF91AF919F917E
:100760008F913F912F910F900FBE0F901F90189572
:100770001F920F920FB60F9211242F933F934F9316
:100780005F936F937F938F939F93AF93BF93EF93F9
:10079000FF93E0910201F09103010995FF91EF9120
:1007A000BF91AF919F918F917F916F915F914F9189
:1007B0003F912F910F900FBE0F901F9018951F9291
:1007C0000F920FB60F9211242F933F934F935F9385
:1007D0006F937F938F939F93AF93BF93EF93FF9309
:1007E000E0910001F09101010995FF91EF91BF9116
:1007F000AF919F918F917F916F915F914F913F91B9
:100800002F910F900FBE0F901F901895CF92DF92EF
:10081000EF92FF920F931F93CF93DF936C017C01B4
:1008200087E0E80EF11CC0E0D0E0062F10E0B80130
:100830000C2E02C0759567950A94E2F76170F70176
:1008400081917F010E9486052196C430D10579F7F8
:10085000C601DF91CF911F910F91FF90EF90DF9034
:10086000CF900C941502CF92DF92EF92FF920F93EC
:100870001F93CF93DF93EC01F62E642F8C810E949F
:1008800086058D818F3F19F060E00E9486058F8577
:100890000F2D10E084FF25C06E0187E0C80ED11C2B
:1008A000E12CF12CB8010E2C02C0759567950A94C5
:1008B000E2F76170F60181916F010E948605FFEFFA
:1008C000EF1AFF0A88E0E816F10461F7CE01DF9124
:1008D000CF911F910F91FF90EF90DF90CF900C94EC
:1008E0001502B80184E0759567958A95E1F7CE0108
:1008F0000E9406046F2DCE01DF91CF911F910F91C1
:10090000FF90EF90DF90CF900C94060441E00E949E
:10091000330481E090E00895F894E7EFF2E001906D
:100920000020E9F73197AF01475F524067EF72E06F
:1009300081EE93E00E94F105E091F403E23010F4BF
:10094000E15001C0E1E0F0E0EF51FC4F84898068A4
:100950000E944706E5E7F3E001900020E9F73197B0
:10096000AF014557534065E773E081EE93E00E9485
:10097000F105789408950E94F60664E670E080E040
:1009800090E00E94280382E00E94550668E371E02F
:1009900087EF92E00E94AC0E8091CB039091CC0344
:1009A0008130910519F466E471E00AC08230910546
:1009B00019F46AE571E004C0039731F46AE671E066
:1009C00085E793E00E94AC0E0E944D0662E370E062
:1009D00080E090E00E9428030E948C0464E670E0AE
:1009E00080E090E00E94280381E0089561E080E0CB
:1009F00090E00E941C036091070181E090E00E945A
:100A00001C036091060182E090E00E941C0360914B
:100A1000050183E090E00E941C036091040184E0E2
:100A200090E00E941C030E944D0649E050E06EEBEE
:100A300072E081EE93E00E94F10560E273E080E0F5
:100A400090E00E9428030E944D0680910801909139
:100A50000901DC01ED91FC910284F385E02D0995FB
:100A60000C948C04833081F028F4813099F082302A
:100A7000A1F008958730A9F08830B9F08430D1F41E
:100A8000809180008F7D03C0809180008F7780935C
:100A90008000089584B58F7702C084B58F7D84BDB2
:100AA00008958091B0008F7703C08091B0008F7D52
:100AB0008093B00008950E949C0ECF93DF93282F5F
:100AC00030E0F901E255FF4F8491F901E656FF4FFE
:100AD000D491F901EA57FF4FC491CC2391F08111D1
:100AE0000E943205EC2FF0E0EE0FFF1FE458FF4F9D
:100AF000A591B491EC91ED2381E090E021F480E0A8
:100B000002C080E090E0DF91CF9108951F93CF93D2
:100B1000DF93282F30E0F901E255FF4F8491F9016E
:100B2000E656FF4FD491F901EA57FF4FC491CC2309
:100B3000C1F0162F81110E943205EC2FF0E0EE0F6C
:100B4000FF1FEE58FF4FA591B4919FB7F894111174
:100B500004C08C91D095D82302C0EC91DE2BDC939D
:100B60009FBFDF91CF911F910895CF93DF9390E0C6
:100B7000FC01E656FF4F2491FC01EA57FF4F849198
:100B8000882361F190E0880F991FFC01E859FF4F1D
:100B9000C591D491FC01EE58FF4FA591B49161111C
:100BA00009C09FB7F8948881209582238883EC91AF
:100BB0002E230BC0623061F49FB7F8948881322FE6
:100BC000309583238883EC912E2B2C939FBF06C0F6
:100BD0008FB7F894E8812E2B28838FBFDF91CF91B8
:100BE0000895CF92DF92EF92FF920F931F93CF93CE
:100BF000DF936C017A018B01C0E0D0E0CE15DF05F8
:100C000081F0D8016D918D01D601ED91FC9101909B
:100C1000F081E02DC6010995892B11F02196EECFC8
:100C20007E01C701DF91CF911F910F91FF90EF904F
:100C3000DF90CF9008951F93CF93DF93EC01162F91
:100C4000688379831B821C821D821E821F82188604
:100C500019861A861B861C861D861E861F86188A84
:100C6000198A1A8A1B8A60E0812F0E94B50561E00B
:100C7000812F0E948605812F0E945D0521E0892B2E
:100C800009F420E02A83DF91CF911F91089540E07D
:100C9000682F81EE93E00C94330481E00E944706B4
:100CA0008BE39FE10197F1F70895CF93DF938230B3
:100CB00028F09091F00398609093F0038093F403F0
:100CC0001092F50380E48093F60380E18093F703AC
:100CD00080E58093F80361E08091E5030E94B5050B
:100CE0008091E6038F3F19F061E00E94B50561E055
:100CF0008091E7030E94B505C1EED3E09E01215E1D
:100D000033408091F00384FD03C084E090E002C092
:100D100088E090E02196281739072CF461E08E8155
:100D20000E94B505EBCF8BE39DE00197F1F760E002
:100D30008091E5030E94860560E08091E7030E94B0
:100D400086058091E6038F3F19F060E00E948605DA
:100D50008091F00384FD20C063E081EE93E00E9467
:100D60000604CBE4D6E4CE010197F1F763E081EE0F
:100D700093E00E9406042197F1F763E081EE93E08F
:100D80000E94060483E592E00197F1F762E081EEAC
:100D900093E00E94060415C080620E9447068BE41F
:100DA00096E40197F1F78091F00380620E94470674
:100DB00083E592E00197F1F78091F00380620E9451
:100DC00047068091F00380620E94470684E080938A
:100DD000F1038CE00E9447060E944D0682E080935A
:100DE000F20386E0DF91CF910C944706CF93DF9317
:100DF000C6ECD3E060E08F850E94860560E08989BB
:100E00000E9486056AE070E080E090E00E9428037E
:100E100060E089850E94860560E08B850E948605DA
:100E20001C821B826CE271E080E090E0DF91CF9148
:100E30000C942803EF92FF920F931F93CF93DF93AD
:100E400083E0E82EF12CC0E0D0E000E010E08091DB
:100E5000CD038E3008F08E508770806480937C00C4
:100E600080917A00806480937A0080917A0086FD78
:100E7000FCCF809178002091790090E0922B8B3FFD
:100E800091051CF00F5F1F4F01C0219666E070E0D6
:100E900080E090E00E94280381E0E81AF108B9F6AA
:100EA00081E0C017D1070CF080E0DF91CF911F9156
:100EB0000F91FF90EF900895CF93DF93C6ECD3E0AE
:100EC00061E089850E94860561E08B850E94860528
:100ED0006AE070E080E090E00E94280361E08F8586
:100EE0000E94860581E090E09C838B8319821882A2
:100EF0000E9462036F8B788F898F9A8F81E08A833B
:100F0000DF91CF9108956F927F929F92AF92BF929F
:100F1000CF92DF92EF92FF920F931F93CF93DF93C5
:100F2000EC0188810E945D053C0199249394892BF2
:100F300009F4912C8A819816F1F00E9462035B01FA
:100F40006C019B01A60160E070E080E090E0AB8066
:100F5000BC80CD80DE80EF80F88409851A850E94F0
:100F6000600DAAE00E94690D91F088F09A8281E0FC
:100F7000672871F00CC00E9462038B019C016B8397
:100F80001C832D833E831F82188619861A8680E073
:100F9000DF91CF911F910F91FF90EF90DF90CF9055
:100FA000BF90AF909F907F906F9008958F929F9287
:100FB000AF92BF92CF92DF92EF92FF920F931F9367
:100FC000CF93DF93EC0188810E945D05892B11F599
:100FD0000E9462034B015C019B01A50160E070E08F
:100FE00080E090E0AB84BC84CD84DE84EF84F8881C
:100FF00009891A890E94600D283E33404105510538
:10100000610571058105910591F088F08B89811149
:101010000EC00FC01B8A0E9462038B019C016B876C
:101020001C872D873E871F86188A198A1A8A80E0B6
:1010300002C081E08B8BDF91CF911F910F91FF90C8
:10104000EF90DF90CF90BF90AF909F908F900895DA
:10105000EF92FF920F931F93CF93DF93C6ECD3E0F1
:101060008EE090E098878F838AE090E09A87898766
:101070008BE090E09C878B8782E090E09E878D8755
:101080008CE090E0988B8F878DE090E09A8B898B35
:1010900061E08CE00E94B50560E08F850E948605C6
:1010A00061E089890E94B50560E089890E94860512
:1010B00061E089850E94B50560E089890E94860506
:1010C00061E08B850E94B50560E089890E948605F4
:1010D00060E08F810E94B50560E08F810E948605E7
:1010E00060E08D850E94B50560E08D850E948605D3
:1010F0001E821D821C821B82E1EEF3E013821282AB
:101100008FE791E09183808388E084838FEF8583EC
:1011100087E0868386E0878385E0808784E0818717
:1011200083E082871386148615861686178681E0EB
:101130000E94550661E170E081EB93E00E941B067E
:1011400060E170E08DE993E00E941B066FE070E0C3
:1011500089E893E00E941B06EDE1F3E08BE891E063
:10116000918380838BEC91E0938382838EEA92E07B
:10117000958384834FE153E05783468351874087AB
:101180005387428727EF32E03587248785E793E04E
:101190009787868760E171E0718B608B558B448BFC
:1011A000578B468B518F408FF38FE28FF58FE48FF3
:1011B000378F268F91A380A3AFE3B3E046E151E0E0
:1011C00013965C934E9312970A2E1B2E15961C9223
:1011D0000E92112414970A2E1B2E17961C920E9213
:1011E000112416970A2E1B2E19961C920E9211246A
:1011F00018971B963C932E931A971D969C938E934B
:101200001C970BEA11E011961C930E9344E051E0F9
:101210001F965C934E931E97C0EAD6E85196DC93D6
:10122000CE93509761E070E053967C936E93529703
:1012300045EB52E055965C934E935497A5E5B3E089
:101240000F2EFFE1EF2EF1E0FF2EF02D1396FC9212
:10125000EE9212970A2E1B2E15961C920E921124B6
:1012600014970A2E1B2E17961C920E921124169775
:101270000A2E1B2E19961C920E92112418971B965B
:101280003C932E931A971D969C938E931C971196C0
:101290001C930E9306E011E01F961C930E931E976D
:1012A0005196DC93CE93509753967C936E935297BE
:1012B00055965C934E935497ABE0B3E048E251E00F
:1012C00013965C934E9312970A2E1B2E15961C9222
:1012D0000E92112414970A2E1B2E17961C920E9212
:1012E000112416970A2E1B2E19961C920E92112469
:1012F00018971B963C932E931A971D969C938E934A
:101300001C974BEE51E011965C934E9346EF54E0E0
:101310001F965C934E931E9749EB52E051965C9357
:101320004E935097ABE6B3E04BE052E011965C93DE
:101330004E931396FC93EE93129717963C932E932D
:10134000169719969C938E931897B38BA28BDF9167
:10135000CF911F910F91FF90EF900895789484B5ED
:10136000826084BD84B5816084BD85B5826085BDA1
:1013700085B5816085BD80916E00816080936E002F
:101380001092810080918100826080938100809121
:1013900081008160809381008091800081608093D2
:1013A00080008091B10084608093B1008091B00092
:1013B00081608093B00080917A00846080937A008D
:1013C00080917A00826080937A0080917A008160B7
:1013D00080937A0080917A00806880937A001092DE
:1013E000C1000E94F60681E090E00E944A0DC82FDD
:1013F00082E090E00E944A0D2C2F30E0322F22270D
:10140000282B309307012093060183E090E00E948F
:101410004A0DC82F84E090E00E944A0D2C2F30E046
:10142000322F2227282B309305012093040182E0DC
:101430000E9455066FE373E08DE193E00E94E600A1
:1014400065E573E08DE193E00E94E6006BE073E0F8
:101450008DE193E00E94E6000E944D066AE070E094
:1014600080E090E00E94280380910801909109019A
:10147000DC01ED91FC910284F385E02D09950E9439
:101480008C0481E092E090930101809300018091AF
:1014900069008C7F826080936900E89A0E944D0603
:1014A00067E272E087EF92E00E94AC0E69E372E0BF
:1014B00085E793E00E94AC0E0E948C048DE993E0D6
:1014C0000E9483078823D1F368EC72E085E793E0FC
:1014D0000E94AC0E0E944D060E948C0464E670E0EF
:1014E00080E090E00E9428030E94F60661E080916F
:1014F000CF030E94860561E08091D7030E94860594
:1015000064EF71E080E090E00E9428030E941A07D7
:10151000882331F082E090E09093CC038093CB035A
:1015200060E08091CF030E94860560E08091D70340
:101530000E94860564EF71E080E090E00E9428033D
:1015400061E08091D1030E94860561E08091D5031E
:101550000E94860564EF71E080E090E00E9428031D
:101560000E941A07882331F082E090E09093CC0328
:101570008093CB030E94F60664EF71E080E090E078
:101580000E9428030E945C0768EC70E080E090E015
:101590000E9428030E941A07811106C083E090E090
:1015A0009093CC038093CB0364E670E080E090E0FE
:1015B0000E9428030E94F6066CED72E085E793E036
:1015C0000E94AC0E0E944D060E948C0460E273E003
:1015D00080E090E00E9428038091CB039091CC039F
:1015E000892B21F00E94BB048111FFCF0E944D0680
:1015F00064E670E080E090E00E942803809108019A
:1016000090910901DC01ED91FC910284F385E02DBC
:1016100009950E948C0464E670E080E090E00E94EE
:10162000280309E412E080E0E82E80E0F82ECC24C4
:10163000C394D12CC1E0AA24AA94BA2C8091C503EA
:10164000882309F454C081EB93E00E948307811141
:10165000C8C18DE993E00E9483078111C2C189E866
:1016600093E00E9483078111BCC18091C9039091CE
:10167000CA03892B09F032C11092C50364E670E0F9
:1016800080E090E00E94280382E00E9455060E94BC
:101690004D0664E670E080E090E00E9428038091AF
:1016A000080190910901DC01ED91FC910284F38520
:1016B000E02D09958091C7038F938091C6038F9386
:1016C0001F930F9385E793E09F938F930E94B30E30
:1016D0000E948C0468EC70E080E090E00E94280397
:1016E0000F900F900F900F900F900F90F7C081EB1D
:1016F00093E00E948307882309F467C08091080162
:10170000909109018B56934009F050C068EC70E04D
:1017100080E090E00E9428030E944D0664E670E09D
:1017200080E090E00E942803C093C5036AE572E060
:1017300085E793E00E94AC0E0E948C0464E670E0A2
:1017400080E090E00E9428038091060190910701BB
:101750009093DC038093DB0361E08091CF030E94D0
:10176000860561E08091D1030E9486056AE070E001
:1017700080E090E00E94280361E08091D7030E94FE
:101780008605B092CA03A092C9031092C7031092B3
:10179000C6030E9462036093DD037093DE038093AF
:1017A000DF039093E003C093C80314C10E944D0669
:1017B0008091080190910901DC01ED91FC91068076
:1017C000F781E02D09950E948C0480910801909189
:1017D0000901B3E085359B0719F08F53934041F41D
:1017E00081EB93E00E94D6078091C403811126C14A
:1017F0008DE993E00E9483078823B9F00E944D068B
:1018000062E370E080E090E00E942803809108018C
:1018100090910901DC01ED91FC910084F185E02DAE
:1018200068E071E009950E948C0489E893E00E94C9
:101830008307882309F43FC0809108019091090132
:101840008B56934049F568EC70E080E090E00E9490
:1018500028030E944D0664E670E080E090E00E945C
:101860002803C093C5036AE672E085E793E00E940F
:10187000AC0E0E948C0464E670E080E090E00E9470
:10188000280380910401909105019093DA038093DD
:10189000D9030E945C079EC00E944D0680910801FA
:1018A00090910901DC01ED91FC910480F581E02D1E
:1018B00009950E948C048091080190910901B3E080
:1018C00085359B0719F08F53934041F489E893E0E5
:1018D0000E94D60780919C038111C6C08091CB03E2
:1018E0009091CC03892BE9F00E94BB048823C9F0B6
:1018F0008DE993E00E9483078823D1F31092CC03F3
:101900001092CB030E944D0680910801909109012D
:10191000DC01ED91FC910284F385E02D09950E9494
:101920008C048091C9039091CA03892B09F452C099
:101930000E9462034090DD035090DE036090DF035D
:101940007090E003DC01CB0184199509A609B70961
:1019500087399105A105B105B8F00E946203609333
:10196000DD037093DE038093DF039093E0038091A7
:10197000C803882319F01092C80306C00E94F60617
:10198000D092CC03C092CB038091C9039091CA033B
:10199000019769F42091C6033091C7038091D90360
:1019A0009091DA032817390710F00E94F60680910B
:1019B000C9039091CA03019669F42091C60330913E
:1019C000C7038091DB039091DC032817390710F0DF
:1019D0000E94F606E114F10409F430CE0E940000E2
:1019E0002DCE0E94F60664E670E080E090E00E9452
:1019F000280382E00E9455060E944D06809108014E
:101A000090910901DC01ED91FC910284F385E02DB8
:101A100009956AE772E085E793E00E94AC0E64E600
:101A200070E080E090E00E9428030E948C0468EC43
:101A300070E080E090E00E94280317CE0E944D06DF
:101A40008091080190910901DC01ED91FC910680E3
:101A5000F781E02D09950E948C0464E670E080E037
:101A600090E00E942803C4CE0E944D068091080198
:101A700090910901DC01ED91FC910480F581E02D4C
:101A800009950E948C0464E670E080E090E00E947A
:101A9000280324CFF999FECF92BD81BDF89A9927EA
:101AA00080B50895262FF999FECF1FBA92BD81BD4A
:101AB00020BD0FB6F894FA9AF99A0FBE01960895D0
:101AC0002A193B094C095D096E097F09800B910BAE
:101AD00008950024A7FD00942A17300540055005FD
:101AE00060057005800590050895EE0FFF1F0590B5
:101AF000F491E02D09940F931F93CF93DF938230DD
:101B0000910510F482E090E0E091FB03F091FC037A
:101B100020E030E0A0E0B0E0309719F14081518141
:101B20000281138148175907C8F08417950769F493
:101B3000109731F012960C93129713961C9327C0AE
:101B40000093FB031093FC0322C02115310519F00B
:101B50004217530718F49A01BD01EF01DF01F801A4
:101B6000DBCF21153105F9F0281B390B2430310565
:101B700080F48A819B816115710521F0FB019383BB
:101B8000828304C09093FC038093FB03FE01329692
:101B900044C0FE01E20FF31F81939193225031095B
:101BA000398328833AC02091F9033091FA03232B1B
:101BB00041F420910C0130910D013093FA032093F0
:101BC000F90320910A0130910B012115310541F4EF
:101BD0002DB73EB740910E0150910F01241B350BDC
:101BE000E091F903F091FA03E217F307A0F42E1B3A
:101BF0003F0B2817390778F0AC014E5F5F4F241771
:101C0000350748F04E0F5F1F5093FA034093F903D6
:101C10008193919302C0E0E0F0E0CF01DF91CF919A
:101C20001F910F910895CF93DF93009709F481C01E
:101C3000FC01329713821282A091FB03B091FC0346
:101C4000109781F420813181820F931F2091F90335
:101C50003091FA032817390751F5F093FA03E0930E
:101C6000F90367C0ED0120E030E0CE17DF0740F454
:101C70004A815B819E0141155105F1F0EA01F5CFE2
:101C8000D383C28340815181840F951FC817D90720
:101C900059F488819981840F951F029691838083DE
:101CA0008A819B81938382832115310529F4F093E6
:101CB000FC03E093FB033DC0E901FB83EA83499108
:101CC0005991C40FD51FEC17FD0761F480819181F4
:101CD000840F951F0296E9019983888382819381FD
:101CE0009B838A83E0E0F0E012968D919C9113979C
:101CF000009719F0FD01DC01F7CF8D919C911197B0
:101D00009D012E5F3F4F820F931F2091F903309169
:101D1000FA032817390769F4309729F41092FC0365
:101D20001092FB0302C013821282B093FA03A093B5
:101D3000F903DF91CF91089581E090E0F8940C943D
:101D40009D11FB01DC010D900020E9F71197019036
:101D50000D920020E1F70895FB01DC0101900D9246
:101D60000020E1F70895AEE0B0E0E9EBFEE00C946E
:101D700074110D891E8986E08C831A8309838FEF85
:101D80009FE79E838D83AE01475E5F4F6F89788D9D
:101D9000CE0101960E94D50EEF81F885E00FF11F6C
:101DA00010822E96E4E00C949011ABE0B0E0EBEDE5
:101DB000FEE00C9466116C017B018A01FC01178224
:101DC0001682838181FFCCC1CE0101963C01F601D0
:101DD0009381F70193FD859193FF81917F01882382
:101DE00009F4BAC1853239F493FD859193FF81914D
:101DF0007F01853229F4B60190E00E94CC10E7CF34
:101E0000912C212C312CFFE1F315D8F08B3279F095
:101E100038F4803279F08332A1F4232D20611DC083
:101E20008D3261F0803369F4232D216016C0832D3B
:101E30008260382EE32DE4603E2E2AC0F32DF86038
:101E40001DC037FC2DC020ED280F2A3040F08E3207
:101E5000B9F436FC81C1232D2064322E19C036FE20
:101E600006C08AE0989E200D1124922E11C0EAE04F
:101E70002E9E200D1124222EF32DF0623F2E08C03D
:101E80008C3621F4832D8068382E02C0883641F4C8
:101E9000F70193FD859193FF81917F018111B3CF6C
:101EA000982F9F7D9554933028F40C5F1F4F9FE32C
:101EB00099830DC0833631F0833771F0833509F093
:101EC00059C021C0F801808189830E5F1F4F88248B
:101ED0008394912C530113C02801F2E04F0E511C42
:101EE000F801A080B18036FE03C0692D70E002C009
:101EF0006FEF7FEFC5010E94C1104C018201F32DED
:101F0000FF773F2E16C0280122E0420E511CF80137
:101F1000A080B18036FE03C0692D70E002C06FEF73
:101F20007FEFC5010E94B6104C01F32DF0683F2EE3
:101F3000820133FC1BC0822D90E088169906B0F414
:101F4000B60180E290E00E94CC102A94F4CFF50113
:101F500037FC859137FE81915F01B60190E00E94C8
:101F6000CC1021102A9421E0821A91088114910446
:101F700071F7E8C0843611F0893641F5F80137FE73
:101F800007C060817181828193810C5F1F4F08C0FF
:101F900060817181072E000C880B990B0E5F1F4F1B
:101FA000F32DFF763F2E97FF09C090958095709591
:101FB00061957F4F8F4F9F4FF0683F2E2AE030E0B2
:101FC000A3010E940811882E861845C0853731F478
:101FD000232D2F7EB22E2AE030E025C0932D997F4D
:101FE000B92E8F36C1F018F4883579F0B5C0803736
:101FF00019F0883721F0B0C0E92FE061BE2EB4FEA1
:102000000DC0FB2DF460BF2E09C034FE0AC0292F7D
:102010002660B22E06C028E030E005C020E130E0A6
:1020200002C020E132E0F801B7FE07C06081718193
:10203000828193810C5F1F4F06C06081718180E0B7
:1020400090E00E5F1F4FA3010E940811882E861892
:10205000FB2DFF773F2E36FE0DC0232D2E7FA22EA7
:10206000891458F434FE0BC032FC09C0832D8E7ED7
:10207000A82E05C0B82CA32C03C0B82C01C0B92CC5
:10208000A4FE0FC0FE01E80DF11D8081803321F414
:102090009A2D997EA92E09C0A2FE06C0B394B394CE
:1020A00004C08A2D867809F0B394A3FC11C0A0FE69
:1020B00006C0B21488F4280C922C9B180EC0B214DF
:1020C00060F4B60180E290E00E94CC10B394F7CFA8
:1020D000B21418F42B1802C0982C212CA4FE10C0A6
:1020E000B60180E390E00E94CC10A2FE17C0A1FCD4
:1020F00003C088E790E002C088E590E0B6010CC01C
:102100008A2D867859F0A1FE02C08BE201C080E2E0
:10211000A7FC8DE2B60190E00E94CC10891438F43F
:10212000B60180E390E00E94CC109A94F7CF8A9495
:10213000F301E80DF11D8081B60190E00E94CC1002
:102140008110F5CF222009F442CEB60180E290E062
:102150000E94CC102A94F6CFF6018681978102C0A6
:102160008FEF9FEF2B96E2E10C948211FC0105901A
:10217000615070400110D8F7809590958E0F9F1F89
:102180000895FC016150704001900110D8F78095CE
:1021900090958E0F9F1F08950F931F93CF93DF93FA
:1021A000FB01238121FD03C08FEF9FEF2CC022FF95
:1021B00016C046815781248135814217530744F464
:1021C000A081B1819D012F5F3F4F318320838C938C
:1021D000268137812F5F3F4F3783268314C08B01C1
:1021E000EC01FB010084F185E02D0995892BE1F6D6
:1021F000D80116968D919C911797019617969C93EE
:102200008E931697CE01DF91CF911F910F91089574
:10221000FA01AA27283051F1203181F1E8946F9317
:102220006E7F6E5F7F4F8F4F9F4FAF4FB1E03ED0BD
:10223000B4E03CD0670F781F891F9A1FA11D680F5B
:10224000791F8A1F911DA11D6A0F711D811D911D8E
:10225000A11D20D009F468943F912AE0269F112403
:102260003019305D3193DEF6CF010895462F477067
:10227000405D4193B3E00FD0C9F7F6CF462F4F70C2
:10228000405D4A3318F0495D31FD4052419302D020
:10229000A9F7EACFB4E0A6959795879577956795C6
:1022A000BA95C9F700976105710508959B01AC01C6
:1022B0000A2E06945795479537952795BA95C9F7ED
:1022C000620F731F841F951FA01D08952F923F92C8
:1022D0004F925F926F927F928F929F92AF92BF9236
:1022E000CF92DF92EF92FF920F931F93CF93DF93E2
:1022F000CDB7DEB7CA1BDB0B0FB6F894DEBF0FBE3F
:10230000CDBF09942A88398848885F846E847D848B
:102310008C849B84AA84B984C884DF80EE80FD808D
:102320000C811B81AA81B981CE0FD11D0FB6F89403
:0E233000DEBF0FBECDBFED010895F894FFCFC4
:10233E00B100B100900190016B030000FD0380001D
:10234E004D656E7500004D6178203E3E3E00004D9D
:10235E006178203C3C3C00005361766520746F2010
:10236E00454550524F4D000020204552524F5221AC
:10237E002020202000006E6F20737065656420722F
:10238E006573706F6E736520000072656C652070EA
:10239E00726F626C656D732000006E6F20637572D4
:1023AE0072656E7420202020200000000000008640
:1023BE0004F105B300B20000000000FC011E03771B
:1023CE0001600135012901B700E600E200DE00DA06
:1023DE0000D400D000CC0000000000FD012003A7B7
:1023EE00018E01D401C50298021402D001CC01C89D
:1023FE0001B700C401C00100000000FF012403B7B3
:10240E0000B700D40181026A021402D001CC01C8C7
:10241E0001B700C401C00100000000FE012203B795
:10242E0000B700EB0153023C021402D001CC01C8EC
:10243E0001B700C401C0010000000000022603B76E
:10244E0000B700B9002B02B700B800B800B800B84A
:10245E0000B700B600B60020446F2073656C66208E
:10246E00746573743F202000002020202020204F10
:10247E006B202020202020000073746F7065642074
:10248E002575202020202020000072756E6E696E4A
:10249E0067206261636B2020000072756E6E696E3C
:1024AE006720666F72772020000073746F7065640A
:1024BE0020202020202020000020203C3C3C7C4D71
:1024CE00656E757C3E3E3E00202020202020202080
:1024DE0020202020202020202020002564002E2EC9
:1024EE006261636B007374700073617665005F5F89
:1024FE0073617665645F5F0020446F696E67207359
:10250E00656C662074657374202020002053656C02
:0E251E00665465737420646F6E652120200082
:107800000C94343C0C94513C0C94513C0C94513CE1
:107810000C94513C0C94513C0C94513C0C94513CB4
:107820000C94513C0C94513C0C94513C0C94513CA4
:107830000C94513C0C94513C0C94513C0C94513C94
:107840000C94513C0C94513C0C94513C0C94513C84
:107850000C94513C0C94513C0C94513C0C94513C74
:107860000C94513C0C94513C11241FBECFEFD8E036
:10787000DEBFCDBF11E0A0E0B1E0ECE9FFE702C060
:1078800005900D92A230B107D9F712E0A2E0B1E065
:1078900001C01D92AD30B107E1F70E942D3D0C945F
:1078A000CC3F0C94003C982F959595959595959582
:1078B000905D8F708A307CF0282F295A8091C0000B
:1078C00085FFFCCF9093C6008091C00085FFFCCF60
:1078D0002093C6000895282F205DF0CF982F809127
:1078E000C00085FFFCCF9093C6000895EF92FF92F1
:1078F0000F931F93EE24FF2487018091C00087FD22
:1079000017C00894E11CF11C011D111D81E4E8164B
:1079100082E4F8068FE0080780E0180770F3E09132
:107920000401F091050109958091C00087FFE9CF1E
:107930008091C6001F910F91FF90EF9008950E94D3
:10794000763C982F8091C00085FFFCCF9093C600B5
:1079500091362CF490330CF09053892F089597555D
:10796000892F08951F930E949F3C182F0E949F3CCF
:107970001295107F810F1F9108951F93182F882350
:1079800021F00E94763C1150E1F71F9108951F935A
:10799000182F0E94763C803249F0809103018F5F5E
:1079A000809303018530C1F01F9108958091C0003C
:1079B00085FFFCCF84E18093C6008091C00085FFE5
:1079C000FCCF1093C6008091C00085FFFCCF80E102
:1079D0008093C6001F910895E0910401F091050184
:1079E00009951F9108950E94763C803241F0809164
:1079F00003018F5F80930301853081F008958091AA
:107A0000C00085FFFCCF84E18093C6008091C00058
:107A100085FFFCCF80E18093C6000895E0910401CA
:107A2000F09105010995089540E951E08823A1F0FE
:107A30002D9A28EE33E0FA013197F1F721503040CA
:107A4000D1F72D9828EE33E0FA013197F1F7215064
:107A50003040D1F7815061F708953F924F925F9285
:107A60006F927F928F929F92AF92BF92CF92DF924E
:107A7000EF92FF920F931F93CF93DF93000080E16B
:107A80008093C4001092C50088E18093C10086E015
:107A90008093C2005098589A259A81E00E94143D24
:107AA00024E1F22E9EE1E92E85E9D82E0FE0C02ECA
:107AB00010E1B12EAA24A394B1E49B2EA6E58A2E50
:107AC000F2E57F2EE0E26E2E79E4572E63E5462E36
:107AD00050E5352E0E94763C8033B1F18133B9F107
:107AE000803409F46FC0813409F476C0823409F41B
:107AF00085C0853409F488C0803531F1823521F1A3
:107B0000813511F1853509F485C0863509F48DC0BC
:107B1000843609F496C0843709F403C1853709F423
:107B200072C1863709F466C0809103018F5F80932C
:107B30000301853079F6E0910401F0910501099582
:107B40000E94763C803351F60E94F33CC3CF0E94E2
:107B5000763C803249F78091C00085FFFCCFF092DF
:107B6000C6008091C00085FFFCCF9092C600809136
:107B7000C00085FFFCCF8092C6008091C00085FFC9
:107B8000FCCF7092C6008091C00085FFFCCF609250
:107B9000C6008091C00085FFFCCF5092C600809146
:107BA000C00085FFFCCF4092C6008091C00085FFD9
:107BB000FCCF3092C6008091C00085FFFCCFB09210
:107BC000C60088CF0E94763C863808F4BDCF0E945C
:107BD000763C0E94F33C7ECF0E94763C803809F4CC
:107BE0009CC0813809F40BC1823809F43CC1883942
:107BF00009F48FC080E00E94C73C6CCF84E10E94F2
:107C0000BD3C0E94F33C66CF85E00E94BD3C0E94D3
:107C1000F33C60CF0E94763C809306010E94763C44
:107C2000809307010E94F33C55CF0E94763C80333D
:107C300009F41DC183E00E94BD3C80E00E94C73C66
:107C400049CF0E94763C809309020E94763C809343
:107C5000080280910C028E7F80930C020E94763C79
:107C6000853409F415C18091080290910902892B8D
:107C700089F000E010E00E94763CF801E85FFE4FDA
:107C800080830F5F1F4F80910802909109020817AF
:107C9000190788F30E94763C803209F045CF809125
:107CA0000C0280FF01C16091060170910701660F0F
:107CB000771F7093070160930601A0910802B091AD
:107CC00009021097C9F0E8E0F1E09B01AD014E0F09
:107CD0005F1FF999FECF32BD21BD819180BDFA9A17
:107CE000F99A2F5F3F4FE417F50799F76A0F7B1F4B
:107CF00070930701609306018091C00085FFFCCF5F
:107D0000F092C6008091C00085FFFCCFB092C60003
:107D1000E1CE83E00E94C73CDDCE82E00E94C73CFA
:107D2000D9CE0E94763C809309020E94763C8093D3
:107D300008028091060190910701880F991F909386
:107D40000701809306010E94763C853409F4A6C0A1
:107D500080910C028E7F80930C020E94763C8032D0
:107D600009F0B8CE8091C00085FFFCCFF092C6002C
:107D7000609108027091090261157105B9F140E046
:107D800050E080910C02A82FA170B82FB27011C0E2
:107D9000BB2309F45CC0E0910601F0910701319624
:107DA000F0930701E09306014F5F5F4F46175707B7
:107DB000E8F4AA2369F3F999FECF209106013091E6
:107DC000070132BD21BDF89A90B58091C00085FFB2
:107DD000FCCF9093C6002F5F3F4F30930701209355
:107DE00006014F5F5F4F4617570718F38091C00099
:107DF00085FDE5CE8091C00085FFF8CFE0CE81E023
:107E00000E94C73C67CE0E94763C803209F08CCE3F
:107E10008091C00085FFFCCFF092C6008091C00029
:107E200085FFFCCFE092C6008091C00085FFFCCFAB
:107E3000D092C6008091C00085FFFCCFC092C600E2
:107E40008091C00085FFFCCFB092C60043CEE09188
:107E50000601F091070194918091C00085FFFCCF4D
:107E60009093C6009CCF80E10E94C73C33CE0E9415
:107E7000763C0E94763C182F0E94763C112309F430
:107E800083C0113009F484C08FE00E94C73C22CE29
:107E900080910C02816080930C02E5CE80910C02EF
:107EA000816080930C0259CF809107018823880F4D
:107EB000880B8A2180930B02809106019091070123
:107EC000880F991F90930701809306018091080203
:107ED00080FF09C080910802909109020196909359
:107EE000090280930802F894F999FECF1127E091D6
:107EF0000601F0910701C8E0D1E08091080290915D
:107F00000902103091F40091570001700130D9F34B
:107F100003E000935700E89500915700017001308D
:107F2000D9F301E100935700E89509901990009169
:107F3000570001700130D9F301E000935700E89534
:107F40001395103498F011270091570001700130FB
:107F5000D9F305E000935700E895009157000170B0
:107F60000130D9F301E100935700E895329602976A
:107F700009F0C7CF103011F00296E5CF112480919F
:107F8000C00085FFB9CEBCCE8EE10E94C73CA2CD19
:0C7F900085E90E94C73C9ECDF894FFCF0D
:027F9C00800063
:040000030000780081
:00000001FF